:1000000000000420190200000102000041A00000CD
:1000100005020000070200000902000000000000C5
:100020000000000000000000000000000B020000C3
:100030000D020000000000000F020000110200008D
:10004000C93300001302000069340000D9330000F6
:10005000FD33000013020000252E000013020000F3
:10006000A13C0000B93C0000D13C00002536000056
:10007000130200001302000013020000130200002C
:100080001302000025A00000130200004534000008
:10009000130200001302000013020000130200000C
:1000A0001302000013020000E93C0000013D0000C3
:1000B0001302000013020000000000000000000016
:1000C000130200001302000013020000213400009C
:1000D000393600001302000013020000E95F00003F
:1000E00013020000130200001302000000000000D1
:1000F00000000000130200000000000013020000D6
:1001000000000000000000000000000000000000EF
:1001100000000000000000000000000000000000DF
:1001200000000000000000000000000000000000CF
:1001300000000000000000000000000000000000BF
:1001400000000000000000000000000000000000AF
:10015000000000000000000000000000000000009F
:10016000000000000000000000000000000000008F
:10017000000000000000000000000000000000007F
:10018000000000000000000000000000000000006F
:10019000000000000000000000000000000000005F
:1001A000000000000000000000000000000000004F
:1001B000000000000000000000000000000000003F
:1001C000000000000000000000000000000000002F
:1001D000000000000000000000000000000000001F
:1001E000000000000000000000000000000000000F
:1001F00000000000000000000000000000000000FF
:10020000FEE7FEE7FEE7FEE7FEE7FEE7FEE7FEE7C6
:10021000FEE7FEE700F002B8FFF7FCBF0F484FF023
:100220000701884385460E4880470E48016841F41F
:1002300070010160BFF34F8FBFF36F8F00F01AB8EA
:1002400009480A490A4A884207D0521A05D0037859
:1002500001300B700131013AF9D1704700000420E0
:10026000B520000088ED00E0B0CE000000000020C6
:100270001C0000203A493B480A1A02D00722914349
:100280008D46394939480A1A06D00722914381F32D
:100290000988022282F3148835483649364A00F02C
:1002A00041F836483649374A00F03CF83648374975
:1002B000374A00F037F837483749384A00F032F803
:1002C00037483849384A00F02DF838483849394A13
:1002D00000F028F838483949394A00F023F83948FD
:1002E0003949002200F036F838483949002200F038
:1002F00031F838483849091A0CF0BEFC374A9047A3
:1003000025482649884205D00268043003B4904746
:1003100003BCF7E700208646EC4600200021304A67
:100320009047FEE7884214D0521A12D003460B437E
:1003300013430324234206D1036804300B600431C5
:10034000043AF9D17047037801300B700131013A5A
:10035000F9D17047884202D002700130FAE7704745
:100360000000042000E0032000000420000004201E
:100370006CE500001C00002060000020E403000089
:10038000E403000078CE00006CE500001C000020B3
:100390001C000020CCCE0000CCCE0000CCCE000053
:1003A000CCCE0000CCCE0000CCCE0000CCCE0000E5
:1003B000CCCE000069E50000B0E500006000002040
:1003C0006000002060000020240600202406002099
:1003D00024060020240600202426002041020000DC
:0403E000B50800005C
:1003E40000B585B00190019B002B0AD0074B43F068
:1003F40001030393019B9B010293039B029898477B
:1004040000E000BF05B05DF804FB00BF10D00000A1
:1004140000B583B00190019B002B0AD04FF47A7091
:10042400FFF7DEFF019B013B0193019B002BF5D1FC
:1004340000E000BF03B05DF804FB000000B583B02A
:100444000190019B1B68184600F092F80346002BAC
:1004540004D10B494FF4F67009F054FE019B1B685C
:100464001F2B02D84FF0A04306E0019B1B6803F04A
:100474001F02019B1A60034B184603B05DF804FB8E
:10048400CCCE00000003005000B585B001900846B2
:1004940011461A4603468DF803300B468DF8023098
:1004A40013468DF8013001AB1846FFF7C7FF0390E0
:1004B4009DF803209DF802305B001A439DF801303B
:1004C4009B001A439DF818301B0242EA03019DF871
:1004D4001C301B04019A1943039B02F5E07243F894
:1004E400221000BF05B05DF804FB00B585B0039091
:1004F4000023019300230093002301220121039888
:10050400FFF7C2FF00BF05B05DF804FB00B585B07E
:1005140003900B468DF80B309DF80B3000220192AE
:1005240000220092002200210398FFF7ADFF00BFD4
:1005340005B05DF804FB00B585B0019001AB184629
:10054400FFF77CFF0390039800F00AF80246019B32
:1005540022FA03F303F00103184605B05DF804FB27
:1005640082B00190019BD3F81035184602B0704751
:1005740084B00190019B5B09029300230393029BC7
:10058400002B03D0029B012B04D007E04FF0FF3374
:10059400039303E04FF6FF73039300BF019B03F043
:1005A4001F030193039A019B22FA03F303F001034F
:1005B400002B14BF01230023DBB2184604B070479C
:1005C40082B00190019B184602B0704782B001903E
:1005D400019BD3F81035DBB2184602B07047000017
:1005E4002DE9F04F87B001908DF803109DF80310AA
:1005F4000591019900200E460746304639464FF0D2
:10060400000A4FF0000B4FEA411B4BEAD06B4FEA54
:10061400401A50465946821B61EB07034FF0000015
:100624004FF00001990041EA9271900002460B4696
:1006340012EB060843EB07094FF000024FF00003EA
:100644004FEAC91343EA58634FEAC81290469946E1
:1006540042464B460599C1F12006A1F1200022FA39
:1006640001F403FA06F6344323FA00F0044323FAB0
:1006740001F5CDE90245DDE90223012B04D3054947
:100684004FF4317009F03EFD029B184607B0BDE8F7
:10069400F08F00BFF0CE000000B583B00190009150
:1006A400019B1B681846FFF791FF03461946009803
:1006B400FFF796FF0346184603B05DF804FB0000FD
:1006C40008B501210E4800F073FD0346002B03D04A
:1006D4000E2000F0C8FA02E00E2000F0D1FA022148
:1006E400074800F065FD0346002B03D00D2000F001
:1006F400BAFA02E00D2000F0C3FA00BF08BD00BF43
:10070400D8CF000000B583B001900B468DF80330BC
:10071400114B00221A709DF80330032B0BD0032BCE
:1007240014DC002B0ED0022B10D1292000F0B5FAD6
:10073400FFF7C6FF0BE0292000F0AFFA064B0122B9
:100744001A7004E0019800F03BFE00E000BF00BF17
:1007540003B05DF804FB00BF6000002000B583B067
:1007640003468DF807309DF807300E2B59D801A2A7
:1007740052F823F02708000027080000B5070000FE
:10078400D3070000270800002708000027080000FE
:1007940027080000050800001B08000021080000CD
:1007A4002708000027080000DF070000E707000013
:1007B40007F02BF80D2000F063FA0E2000F060FA29
:1007C400292000F05DFA102000F05AFA2CE01020E5
:1007D40000F049FAFFF774FF26E0102000F043FA16
:1007E40022E006F0CBFF0D2000F04AFA0E2000F0C4
:1007F40047FA292000F044FA102000F041FA13E0EF
:1008040005F0FAFD034683F00103DBB2002B0AD0A6
:1008140006F0AEFF07E006F0EBFF05E006F0C2FFCE
:1008240002E000BF00E000BF00BF03B05DF804FBBE
:1008340000B585B003468DF807300B20FFF77BFE2B
:1008440003909DF807301846FFF7CAFD0B20FFF709
:1008540072FE0246039B934201D1039B01E0039B7A
:10086400DB43184605B05DF804FB000000B585B015
:1008740003460091ADF806306420FFF7D9FF0390DA
:10088400039B002B04D00121084800F06CFC04E019
:1008940001220421054800F0F2FB044800F04BFC5F
:1008A40007F080FA00BF05B05DF804FBD8CF000064
:1008B40000B58FB001F032FD0D900D9B0C930C9B95
:1008C400002B05D0454A4FF4D0710C9806F092F9EC
:1008D400434806F075FE0D900D9B0B930B9B002B6C
:1008E40005D03E4A40F2B3110B9806F083F93D4817
:1008F400FFF766FE0A900A9807F07EFA0D900D9BAA
:100904000993099B002B05D0344A4FF4DD710998F3
:1009140006F070F903210B20FFF7F8FD012308937B
:100924000023079300238DF8083000238DF8093045
:1009340000238DF80A3006238DF80B30002303932F
:1009440002AB294A1946294802F0D0FF0790079BB9
:100954000693069B002B05D0204A4FF4E2710698BB
:1009640006F048F908992148FFF796FE05900123FF
:1009740000930123059A00211C4803F018F9012370
:10098400059A0021194803F0D9F806F0C7FE0D9026
:100994000D9B0493049B002B05D0104A4FF4E8717F
:1009A400049806F027F907F0FDF9104803F098F8C9
:1009B4000620FFF79AFD0820FFF797FD062000F0B8
:1009C40052F94FF47A70FFF723FD062000F058F92E
:1009D4004FF47A70FFF71CFDF0E700BF14CF00005E
:1009E40018D00000D8CF00007108000058CF0000D4
:1009F40000B587B00390029101920F4B1B68002B46
:100A040003D10E492F2009F07DFB019B04331B68A1
:100A140004AA0B4918460BF0ECFE049BDBB20E3320
:100A24008DF81730044B1B689DF817201046984723
:100A340000BF07B05DF804FBBC00002024D0000018
:100A440060D0000000B587B00390029101920E4B74
:100A54001B68002B03D10D49392009F053FB019B7E
:100A640004331B6804AA0A4918460BF0C2FE049B0F
:100A74008DF81730044B1B689DF8172010469847D3
:100A840000BF07B05DF804FBBC00002024D00000C8
:100A940060D0000000B583B00190019B1B6818462C
:100AA40000F0B9F80346002B04D10B494FF4F6705B
:100AB40009F028FB019B1B681F2B02D84FF0A043B1
:100AC40006E0019B1B6803F01F02019B1A60034BA5
:100AD400184603B05DF804FBE0D0000000030050AA
:100AE40000B585B00190084611461A4603468DF8B4
:100AF40003300B468DF8023013468DF8013001ABFC
:100B04001846FFF7C7FF03909DF803209DF80230B5
:100B14005B001A439DF801309B001A439DF818307E
:100B24001B0242EA03019DF81C301B04019A19437D
:100B3400039B02F5E07243F8221000BF05B05DF894
:100B440004FB00B585B003900023019300230093B8
:100B54000023012201210398FFF7C2FF00BF05B063
:100B64005DF804FB00B585B0019001AB1846FFF7B2
:100B740091FF0390019B012202FA03F319460398A3
:100B840000F035F800BF05B05DF804FB00B585B092
:100B9400019001AB1846FFF77DFF0390019B0122F2
:100BA40002FA03F31946039800F02BF800BF05B0CE
:100BB4005DF804FB00B585B0019001AB1846FFF762
:100BC40069FF0390039800F00AF80246019B22FA99
:100BD40003F303F00103184605B05DF804FB82B08B
:100BE4000190019BD3F80435184602B0704782B0D7
:100BF40001900091019B009AC3F8082500BF02B040
:100C0400704782B001900091019B009AC3F80C25B3
:100C140000BF02B0704784B00190019B5B0902934E
:100C240000230393029B002B03D0029B012B04D0CF
:100C340007E04FF0FF33039303E04FF6FF73039392
:100C440000BF019B03F01F030193039A019B22FA47
:100C540003F303F00103002B14BF01230023DBB2D1
:100C6400184604B0704700B583B001900198FFF7AF
:100C740068FF0198FFF78AFF00BF03B05DF804FB2B
:100C840000B583B001900198FFF75BFF0198FFF76F
:100C940069FF00BF03B05DF804FB00B585B00190A7
:100CA4000198FFF74EFF0198FFF784FF0390039B21
:100CB400002B03D10198FFF755FF02E00198FFF7DD
:100CC40065FF00BF05B05DF804FB82B00190019B95
:100CD4001B7A184602B0704700B585B001900B46E8
:100CE4008DF80330019B002B04D10F494FF4887019
:100CF40009F008FA0198FFF7E8FF03461A469DF841
:100D04000330934201D3002309E0019B0933039389
:100D14009DF8032013465B001344039A13441846BA
:100D240005B05DF804FB00BF04D1000082B001905F
:100D3400019B1B78184602B0704782B00190019B5A
:100D44005B78184602B0704700B585B001900B4639
:100D54008DF80330019B002B04D10D4940F2431060
:100D640009F0D0F9019B5B789DF803209A4201D3E6
:100D7400002309E0019B9B781A46019B13440393CB
:100D84009DF80330039A1344184605B05DF804FB3C
:100D940004D1000082B00190019B1B78184602B078
:100DA400704700B583B00190019B0433184609F0E5
:100DB40009FBBFF34F8F00BF00BF03B05DF804FB16
:100DC40000B583B00190019B0433184609F012FB6F
:100DD400BFF34F8F00BF00BF03B05DF804FB00B545
:100DE40083B001900B468DF80330019A9DF80330CF
:100DF400012101FA03F31946104609F09BFA00BFDA
:100E040003B05DF804FB00B583B001900B468DF888
:100E14000330019A9DF80330012101FA03F3DB4307
:100E24001946104609F0B6FA00BF03B05DF804FB9A
:100E340082B001900B468DF80330019B1A689DF82F
:100E4400033022FA03F303F00103012B0CBF012347
:100E54000023DBB2184602B0704700B583B001909E
:100E640002210198FFF7E4FF0346002B03D006F0AC
:100E7400D9FC00230FE003210198FFF7D9FF0346B3
:100E8400002B14BF01230023DBB283F00103DBB288
:100E940003F00103DBB2184603B05DF804FB000065
:100EA40000B583B00190019B002B04D1054940F2A9
:100EB4001B2009F027F9019B1B69184603B05DF854
:100EC40004FB00BF3CD1000000B585B001900021B7
:100ED4000198FFF701FF039000210398FFF734FF07
:100EE40002900298FFF756FF0346184605B05DF8D6
:100EF40004FB000000B583B00190019B002B03D1DB
:100F04000949412009F0FEF8019B1B68002B03D11D
:100F14000549422009F0F6F8019B1B680C3318467A
:100F240003B05DF804FB00BF78D1000000B583B0C6
:100F34000190019B002B03D104494F2009F0E2F8F2
:100F4400019B184603B05DF804FB00BF78D1000094
:100F540000B587B00190019B002B03D10F495C20A1
:100F640009F0D0F8019B103305930198FFF7C2FFF5
:100F74000490059808F0DCFE0390049B03F12D0215
:100F8400039B1A60039B11225A60059808F0D0FE57
:100F94000346184607B05DF804FB00BF78D1000093
:100FA40000B585B001900198FFF7D2FF0390019836
:100FB400FFF7A0FF0290039B1868029B03F11C013A
:100FC400039B5B681A460BF05FFE0346002B0BD0B5
:100FD400039B1868029B03F11C01039B5B681A4680
:100FE4000BF0E6FE012300E00023184605B05DF88F
:100FF40004FB00B58BB00190019B09930198FFF7A6
:1010040079FF08900998FFF75FFF03468DF81F30BA
:10101400089B03211846FFF7F6FE0198FFF7C0FF6F
:10102400034683F00103DBB2002B01D0002322E04E
:101034000198FFF78DFF0690069B1B680293069BA1
:101044005B68039300230493002008F085FF02AA41
:101054009DF81F301146184607F0A0F90590059B2E
:10106400002B04D1089B03211846FFF7B8FE00208B
:1010740008F086FF059B18460BB05DF804FB00B52D
:1010840085B001900B468DF8033013468DF802307D
:101094000198FFF72FFF03909DF80330DB08DBB2C4
:1010A400ADF80A309DF803309BB203F00703ADF8A6
:1010B4000830039B1846FFF774FE9DF80230002B9E
:1010C40018D0BDF80830012202FA03F35AB2BDF871
:1010D4000A3003990B449B7F5BB213435AB2BDF8A9
:1010E4000A30D1B2039A13440A469A77039B012229
:1010F4001A7717E0BDF80830FE2202FA03F35AB259
:10110400BDF80A3003990B449B7F5BB213405AB27B
:10111400BDF80A30D1B2039A13440A469A77039B66
:1011240001221A77039B1846FFF74AFE002318464C
:1011340005B05DF804FB00B585B001900198FFF798
:10114400D9FE039000BF039B1846FFF786FE0346B3
:10115400002B04D00198FFF74CFF0346FFE7184625
:1011640005B05DF804FB00B585B001900B468DF821
:1011740003300198FFF7BEFE0390039B1846FFF768
:1011840010FE039B1E330F22002118460BF042FE73
:10119400039B00225A77039B9DF803201A77039B35
:1011A4001846FFF70DFE0023184605B05DF804FB52
:1011B40000B585B001900B468DF803300198FFF718
:1011C40099FE0390039B93F83E209DF8033013404F
:1011D400DBB2002B14BF01230023DBB2184605B099
:1011E4005DF804FB84B001900091019B10330393DC
:1011F400039BDB685A68009B1A60039BDB681B68CF
:10120400184604B0704784B001900091019B1033DC
:101214000393039B1B695A68009B1A60039B1B6919
:101224001B68184604B0704700B587B00190009160
:101234000198FFF77BFE049000230593002303939A
:10124400009B1B79012B06D103AB19460498FFF7C9
:10125400C9FF05900CE0009B1B79022B06D103AB60
:1012640019460498FFF7CFFF059001E0062309E033
:10127400009B581C059B591C039B013B1A4608F014
:1012840053F80346184607B05DF804FB00B587B071
:10129400034600918DF807309DF80730002B01D0EC
:1012A400032319E0009B0593059B10331846FFF7B1
:1012B400F7FD04900598FFF71DFE0390049B1B683F
:1012C4005A78039B83F83E20059BDB6A0293029BBA
:1012D4000221059898470023184607B05DF804FBDF
:1012E40000B58BB0019000910198FFF71FFE0890A4
:1012F400089B10331846FFF7D3FD0790079B1B6824
:101304000493079B5B68059300230693002008F071
:1013140023FE04AB1946002007F040F80990099B0E
:10132400002B09D1084B0293089B039302AB194687
:10133400002008F047F80990002008F021FE099BDE
:1013440018460BB05DF804FB9112000000B583B0A1
:1013540001900198FFF74DFE0346184603B05DF86F
:1013640004FB000000B587B001900091019B002BA5
:1013740004D112494FF4F67008F0C4FE009B002B10
:1013840004D10E4940F2ED1008F0BCFE0198FFF7BD
:10139400CDFD0590059B103304930598FFF7AAFD36
:1013A4000390039B0293009B029A0499019808F00E
:1013B400CBFB0346184607B05DF804FB78D1000068
:1013C40000B587B00190019B002B04D12A4940F25B
:1013D400FB1008F097FE0198FFF7A8FD059005980B
:1013E400FFF788FD04900598FFF7B2FD0390039B77
:1013F4001868039B5B681A4600210BF00BFD049BE5
:1014040003F12D00039B5B681A4600210BF002FDDB
:10141400049B03F11C00039B5B681A4600210BF03C
:10142400F9FC002008F098FD0198FFF74DFD0346F4
:101434008DF80B309DF80B3003F00803002B04D01B
:101444000D4940F2092008F05DFE9DF90B30002B98
:1014540004DA9DF80B30184603F05CFF049B03216B
:101464001846FFF7D0FC002008F08AFD0023184638
:1014740007B05DF804FB00BF78D1000000B585B06B
:1014840001900198FFF752FD0390039B10330293E0
:10149400029B5B68DBB2184605B05DF804FB00B53F
:1014A40085B001900B468DF803300198FFF73EFD9F
:1014B4000390039B10330293029B1A689DF8033038
:1014C4009B0013441B681B68184605B05DF804FBB9
:1014D40000B589B003900B4601928DF80B30039848
:1014E400FFF724FD0790079B10330693069B1A68A9
:1014F4009DF80B309B0013441B689A68019B1344AE
:101504000593059B184609B05DF804FB10B58AB035
:1015140003900291019200930298FFF7D6FB0346D1
:101524001A46A64B1A700298FFF700FD0990039B18
:10153400002B04D1A24940F2452008F0E3FD019BB1
:10154400059300230693009B0793039B0893089B32
:101554001B68002B78D0B3F5207F80F07B83B3F534
:10156400137FC0F07783A3F51373332B00F27283D8
:1015740001A252F823F000BF6F160000A11600006C
:10158400591C0000591C0000591C0000EF160000F3
:10159400591C0000211700005D1700008F17000080
:1015A400D11700000318000035180000591C000072
:1015B400591C00006718000099180000CB1800009F
:1015C400FD1800002F19000061190000591C0000CB
:1015D400591C0000591C0000591C0000591C000033
:1015E400591C0000591C0000591C0000A9190000D6
:1015F400591C0000591C0000F31900002D1A0000AA
:10160400591C0000591C0000591C0000591C000002
:10161400591C0000591C0000591C0000591C0000F2
:10162400911A0000C31A0000591C0000591C000044
:10163400591C0000151B0000471B0000791B00000B
:10164400C51B0000011C00005E4B00221A70F4E26E
:10165400089B09221A71069A079B9A4205D3089B94
:101664004FF413721A600123F8E2059B002B05D096
:10167400089A0599069B0B4412791A70069B01334C
:101684000693089B04221A71069A079B9A4205D373
:10169400089B40F24D221A600123DFE2059B002BD8
:1016A40005D0089A0599069B0B4412791A70069B7B
:1016B40001330693434B1B7819460298FFF70CFB42
:1016C4000346414A1360404B1B68089C1846FFF7C9
:1016D4002DFB03462371069A079B9A4205D3089B68
:1016E40040F251221A600123B8E2059B002B05D079
:1016F400089A0599069B0B4412791A70069B0133CC
:101704000693089B00221A71069A079B9A4205D3F6
:10171400089B40F253221A6001239FE2059B002B91
:1017240005D0089A0599069B0B4412791A70069BFA
:1017340001330693244B1B68089C1846FFF7FDFAF7
:1017440003462371069A079B9A4205D3089B4FF4DC
:1017540015721A60012381E2059B002B05D0089ABB
:101764000599069B0B4412791A70069B0133069364
:10177400089B03221A71069A079B9A4205D3089B79
:1017840040F255221A60012368E2059B002B05D024
:10179400089A0599069B0B4412791A70069B01332B
:1017A4000693089B01221A71069A079B9A420DD34D
:1017B400089B40F256221A6001234FE2C000002029
:1017C40078D10000C1000020C4000020059B002B3C
:1017D40005D0089A0599069B0B4412791A70069B4A
:1017E40001330693089B01221A71069A079B9A42B9
:1017F40005D3089B40F257221A6001232EE2059B71
:10180400002B05D0089A0599069B0B4412791A708F
:10181400069B01330693089B00221A71069A079BC4
:101824009A4205D3089B4FF416721A60012315E2FD
:10183400059B002B05D0089A0599069B0B44127949
:101844001A70069B01330693089B09221A71069AA3
:10185400079B9A4205D3089B40F25B221A6001233E
:10186400FCE1059B002B05D0089A0599069B0B44C7
:1018740012791A70069B01330693089B21221A7170
:10188400069A079B9A4205D3089B4FF417721A6075
:101894000123E3E1059B002B05D0089A0599069BDB
:1018A4000B4412791A70069B01330693089B11228C
:1018B4001A71069A079B9A4205D3089B40F25D224F
:1018C4001A600123CAE1059B002B05D0089A0599EB
:1018D400069B0B4412791A70069B01330693089BEE
:1018E40001221A71069A079B9A4205D3089B40F27B
:1018F4005E221A600123B1E1059B002B05D0089AF2
:101904000599069B0B4412791A70069B01330693C2
:10191400089B21221A71069A079B9A4205D3089BB9
:1019240040F25F221A60012398E1059B002B05D049
:10193400089A0599069B0B4412791A70069B013389
:101944000693089B01221A71069A079B9A4205D3B3
:10195400089B4FF418721A6001237FE1059B002B4A
:1019640005D0089A0599069B0B4412791A70069BB8
:10197400013306930298FFF781FD03461A468A4B0A
:101984001A708A4B00221A7060E0089B22221A7196
:10199400069A079B9A4205D3089B40F269221A6073
:1019A40001235BE1059B002B05D0089A0599069B52
:1019B4000B4412791A70069B013306937B4B1B78F8
:1019C40019460298FFF76BFD03469AB2784B1A80CA
:1019D400774B1A88089BD2B21A71069A079B9A42CF
:1019E40005D3089B4FF41B721A60012336E1059B53
:1019F400002B05D0089A0599069B0B4412791A709E
:101A0400069B013306936A4B1B881B0A9AB2089BF8
:101A1400D2B21A71069A079B9A4205D3089B40F2E8
:101A24006D221A60012319E1059B002B05D0089A49
:101A34000599069B0B4412791A70069B0133069391
:101A44005A4B1B780133DAB2584B1A70574B1A7839
:101A5400554B1B789A4298D3564B1B681846FFF790
:101A64006CF903461A46544B1A70504B00221A70F4
:101A7400D6E0089B07221A71069A079B9A4205D35F
:101A8400089B40F276221A600123E7E0059B002BB5
:101A940005D0089A0599069B0B4412791A70069B87
:101AA40001330693089B05221A71069A079B9A42F2
:101AB40005D3089B40F277221A600123CEE0059BF0
:101AC400002B05D0089A0599069B0B4412791A70CD
:101AD400069B01330693374B1B68344A1278114630
:101AE4001846FFF731F90346344A1360334B1B6839
:101AF400089C1846FFF74EF903462371069A079B84
:101B04009A4205D3089B40F27B221A600123A5E088
:101B1400059B002B05D0089A0599069B0B44127966
:101B24001A70069B01330693089B03221A71069AC6
:101B3400079B9A4205D3089B4FF41F721A60012336
:101B44008CE0059B002B05D0089A0599069B0B4455
:101B540012791A70069B01330693089B40221A716E
:101B6400069A079B9A4205D3089B40F27D221A608D
:101B7400012373E0059B002B05D0089A0599069B69
:101B84000B4412791A70069B01330693089B0022BA
:101B94001A71069A079B9A4212D3089B40F27E223E
:101BA4001A6001235AE000BFC8000020C9000020C9
:101BB400CA000020C4000020CC000020D000002077
:101BC400059B002B05D0089A0599069B0B441279B6
:101BD4001A70069B01330693099B1B6B214A1278EA
:101BE4001A44089B12781A71069A079B9A4205D3E5
:101BF400089B40F27F221A6001232FE0059B002BF3
:101C040005D0089A0599069B0B4412791A70069B15
:101C140001330693134B1B780133DAB2114B1A705C
:101C2400104B1A78104B1B789A42FFF422AF0F4BDB
:101C34001B780133DAB20D4B1A700C4B1A780C4B2B
:101C44001B789A42FFF404AD089B4FF421721A608A
:101C5400012303E0089B00221A60002318460AB0FF
:101C640010BD00BFC9000020CC000020C10000202E
:101C7400C000002000B58BB001900B468DF80330F6
:101C840001238DF80330019B09930998FFF732F97A
:101C940008900198FFF718F903468DF81F30089B48
:101CA40003211846FFF7AFF80998FFF751F906909A
:101CB400069B1B680293069B5B68039300230493B3
:101CC4000998FFF76DF9002008F046F902AA9DF87B
:101CD4001F301146184606F061FB0590059B002B4A
:101CE40004D1089B03211846FFF779F8002008F077
:101CF40047F9002318460BB05DF804FBBFF34F8F80
:101D040000BF064BDB6803F4E0620449044B134351
:101D1400CB60BFF34F8F00BF00BFFDE700ED00E0D5
:101D24000400FA0582B0164B1B680193154B1B681F
:101D34000093019B082B1FD1009B052B1AD801A2ED
:101D440052F823F0611D0000651D0000691D0000AC
:101D54006D1D0000711D0000751D000001230CE0C5
:101D640001230AE0012308E0012306E0012304E043
:101D7400012302E0012300E00023184602B070476B
:101D8400300100103401001082B0164B1B6801931F
:101D9400154B1B680093019B082B1FD1009B052B3F
:101DA4001AD801A252F823F0C51D0000C91D000075
:101DB400CD1D0000D11D0000D51D0000D91D00005F
:101DC40001230CE001230AE0012308E0012306E0DB
:101DD400012304E0012302E0012300E0002318466C
:101DE40002B07047300100103401001082B0164B6D
:101DF4001B680193154B1B680093019B082B1FD193
:101E0400009B052B1AD801A252F823F0291E0000CA
:101E14002D1E0000311E0000351E0000391E00007A
:101E24003D1E000001230CE000230AE0002308E02B
:101E3400002306E0002304E0002302E0002300E086
:101E44000023184602B0704730010010340100101E
:101E540082B0164B1B680193154B1B680093019BC2
:101E6400082B1FD1009B052B1AD801A252F823F08E
:101E74008D1E0000911E0000951E0000991E00009A
:101E84009D1E0000A11E000001230CE000230AE0B7
:101E9400002308E0002306E0002304E0002302E01E
:101EA400002300E00023184602B070473001001000
:101EB4003401001082B0164B1B680193154B1B684C
:101EC4000093019B082B1FD1009B052B1AD801A25C
:101ED40052F823F0F11E0000F51E0000F91E000068
:101EE400FD1E0000011F0000051F000001230CE07F
:101EF40000230AE0002308E0002306E0002304E0B6
:101F0400002302E0002300E00023184602B07047DB
:101F1400300100103401001082B0164B1B6801938D
:101F2400154B1B680093019B082B1FD1009B052BAD
:101F34001AD801A252F823F0551F0000591F0000BF
:101F44005D1F0000611F0000651F0000691F000085
:101F540001230CE000230AE0002308E0002306E04C
:101F6400002304E0002302E0002300E000231846DD
:101F740002B07047300100103401001082B0164BDB
:101F84001B680193154B1B680093019B082B1FD101
:101F9400009B052B1AD801A252F823F0B91F0000A8
:101FA400BD1F0000C11F0000C51F0000C91F0000A5
:101FB400CD1F000001230CE001230AE0012308E007
:101FC400012306E0012304E0012302E0012300E0F1
:101FD4000023184602B0704730010010340100108D
:101FE40082B0164B1B680193154B1B680093019B31
:101FF400082B1FD1009B052B1AD801A252F823F0FD
:102004001D200000212000002520000029200000C0
:102014002D2000003120000000230CE000230AE002
:10202400002308E0002306E0012304E0012302E08A
:10203400012300E00023184602B07047300100106D
:102044003401001008B5FFF7CBFF0346002B07D07F
:102054004FF010234FF08042D3F80832C2F85835BD
:1020640000BF08BD00BF044BD3F80034002BFAD0E6
:1020740000BF00BF704700BF00E0014000B583B05F
:102084000190054A019BC2F80435FFF7EBFF00BF3E
:1020940003B05DF804FB00BF00E00140024B034ABB
:1020A4001A6000BF704700BF240000200090D003D6
:1020B40008B5FFF737FE0346002B0ED04FF08043E0
:1020C4000022C3F80C214FF080430022C3F81021F2
:1020D4004FF080430022C3F83825FFF755FE03462E
:1020E400002B76D04FF08053734AD3F80434C2F8EF
:1020F40020354FF08053704AD3F80834C2F82435A1
:102104004FF080536C4AD3F80C34C2F828354FF0A2
:102114008053694AD3F81034C2F82C354FF08053F9
:10212400654AD3F81434C2F830354FF08053624A0C
:10213400D3F81834C2F834354FF080535E4AD3F8DC
:102144001C34C2F840354FF080535B4AD3F8203436
:10215400C2F844354FF08053574AD3F82434C2F8B8
:1021640048354FF08053544AD3F82834C2F84C35DC
:102174004FF08053504AD3F82C34C2F850354FF006
:1021840080534D4AD3F83034C2F854354FF080535D
:10219400494AD3F83434C2F860354FF08053464A84
:1021A400D3F83834C2F864354FF08053424AD3F838
:1021B4003C34C2F868354FF080533F4AD3F840347A
:1021C400C2F86C354FF080533B4AD3F84434C2F81C
:1021D4007035FFF70BFE0346002B02D0374B384A0D
:1021E4001A60FFF735FE0346002B03D0354BFB2264
:1021F400C3F81825FFF75EFE0346002B0AD0324BC6
:102204001B6823F00F02314B1B6803F00F032E49A8
:1022140013430B60FFF780FE0346002B03D02C4BC7
:102224004FF400721A60FFF7A9FE0346002B0DD08D
:102234004FF08043D3F8003403F00103002B05D0A2
:102244004FF080436FF00102C3F80024214BD3F810
:102254008830204A43F47003C2F88830BFF34F8FAC
:1022640000BFBFF36F8F00BFFFF7ECFE4FF01023EA
:10227400D3F80032002B05DB4FF01023D3F80432DF
:10228400002B15DA0120FFF7F9FE4FF0102312227C
:10229400C3F80022FFF7E6FE4FF010231222C3F822
:1022A4000422FFF7DFFE0020FFF7E8FEFFF726FD1C
:1022B400FFF7F4FE00BF08BD00C000408C5600408C
:1022C4004881030000F00040E40E00405802001072
:1022D4004096024000ED00E0044BD3F80034002B9C
:1022E40014BF01230023DBB21846704700000140ED
:1022F40008B500F0F1FA00BF08BD000008B500F011
:1023040005FB024B00225A7000BF08BDD400002018
:10231400014B1B7818467047D400002000B583B0E9
:1023240000230193144B1B78002B02D085230193C7
:1023340014E0114B00229A600F4B00225A600E4B9E
:1023440000221A610C4B0022DA600C4800F084FA77
:10235400019000F0A7FA084B01221A70FFF7BCFFA6
:102364000346002B02D0044B01229A70019B1846AD
:1023740003B05DF804FB00BFD40000201D2500005D
:1023840084B001900091019B1B68039306E0039ABB
:10239400009B9A420DD0039B1B680393039B002B65
:1023A400F5D1019B1A68009B1A60019B009A1A6080
:1023B40000E000BF04B0704784B00190019B1B682B
:1023C4000393039B002B03D0039B1A68019B1A60A1
:1023D400039B184604B0704700B583B00190234BAB
:1023E4001B78002B04D1224940F2331007F08AFEF7
:1023F4001E4B5B78DBB2002B12D0019B002B03D069
:10240400019B5B6800209847002007F0A5FD174B4F
:102414005B680133154A5360002007F0B1FD17E0F3
:10242400002007F099FD019B002B03D0019911486E
:10243400FFF7A6FF0D4B5B68002B01D1FFF758FF98
:102444000A4B5B680133094A5360002007F098FD8A
:10245400064B5B68002B04D1054940F24F1007F08E
:1024640051FE00BF03B05DF804FB00BFD4000020A0
:1024740004D20000DC00002008B5124B1B78002BAE
:1024840004D111494FF4AA7007F03CFE0D4B5B6870
:10249400002B04D10C4940F2551007F033FE002004
:1024A40007F05AFD074B5B68013B064A5360054B36
:1024B4005B68002B01D1FFF721FF002007F060FDCE
:1024C40000BF08BDD400002004D2000000B585B0D0
:1024D40003468DF807309DF80730002B02D10C4BD2
:1024E400039301E00B4B03930398FFF765FF0290FE
:1024F400029B002B06D0029B5B689DF807201046C8
:102504009847F1E700BF00BF05B05DF804FB00BFCA
:10251400DC000020E400002000B583B003468DF801
:1025240007309DF80730002B05D10A4B01225A7061
:102534000020FFF7CBFF9DF80730012B05D1054B99
:1025440001229A700120FFF7C1FF00BF03B05DF8BC
:1025540004FB00BFD400002000B585B001900D4BF2
:102564001B78002B01D085230FE0019B002B01D1A8
:10257400094B0193019800F01FFE0390039B002B6D
:1025840002D1044B01221A70039B184605B05DF872
:1025940004FB00BFE800002044D2000000B583B073
:1025A400019000F00AF8019800F034FE00F04EFEAD
:1025B4000023184603B05DF804FB08B500F04DFE97
:1025C40000F052FE00BF08BD10B487B00190009126
:1025D400019B009A53E8004F04EA020043E800011B
:1025E40091F0000FF6D1059404900391059B1846D1
:1025F40007B05DF8044B704782B003468DF807308E
:102604009DF90730002B0CDB9DF8073003F01F0207
:1026140005499DF907305B09012000FA02F241F8EF
:10262400232000BF02B0704700E100E082B00346FF
:1026340000918DF807309DF90730002B0ADB009BD1
:10264400DAB20C499DF907305201D2B20B4483F837
:1026540000230BE0009BDAB207499DF8073003F032
:102664000F03043B5201D2B20B441A7600BF02B0EE
:10267400704700BF00E100E000ED00E082B001908F
:10268400019B1B0B5BB2184602B0704700B583B0C8
:1026940003460A468DF8073013468DF806309DF838
:1026A4000630072B03D908496B2007F02BFD9DF852
:1026B40006209DF9073011461846FFF7B7FF00BF03
:1026C40003B05DF804FB00BF48D2000000B583B03E
:1026D40003468DF807309DF907301846FFF78CFF45
:1026E40000BF03B05DF804FB82B003468DF80730E9
:1026F4000F4A9DF90730002B00DA1F335B115BB2E0
:1027040052F823209DF90730594203F01F0301F0CA
:102714001F0158BF4B425BB222FA03F303F00103DB
:10272400002B14BF01230023DBB2184602B070470C
:1027340000E100E082B001904FF08042019BC2F8BA
:10274400043300BF02B0704782B001904FF0804262
:10275400019BC2F8083300BF02B0704782B0034641
:102764008DF807309DF8073003F1804301221A6089
:1027740000BF02B0704784B00346ADF80630BDF820
:10278400063003F1804300221A60BDF8063003F1DD
:1027940080431B680393039B00BF04B0704782B05F
:1027A4000346ADF80630BDF8063003F180431B68DC
:1027B400002B14BF01230023DBB2184602B070477C
:1027C40082B001904FF08042019BC2F8183500BFDF
:1027D40002B0704782B003468DF807304FF0804353
:1027E400D3F80C3403F001129DF8073043F480331E
:1027F4009A420CBF01230023DBB2184602B0704793
:1028040000B583B006238DF807304FF08040FFF702
:1028140035FF03461846FFF767FF034683F00103BD
:10282400DBB2002B13D04FF08040FFF727FF0346A5
:102834001A469DF8073019461046FFF727FF4FF058
:102844008040FFF71BFF03461846FFF73FFF00BF1A
:1028540003B05DF804FB000000B585B00190019B56
:10286400002B03D10D49A42007F04CFC0023039353
:102874000B4B1B79002B02D08523039308E0084AF5
:10288400019B1360064B01221A71054B00225A71F9
:10289400039B184605B05DF804FB00BF6CD2000032
:1028A400EC00002008B5094B1B79002B03D1084923
:1028B400BD2007F027FCFFF7A3FF0120FFF780FFEF
:1028C400044B01221A7000BF08BD00BFEC000020B9
:1028D4006CD20000F400002008B50A4B1B79002BD1
:1028E40004D109494FF4817007F00CFC4FF4807057
:1028F400FFF741FF0120FFF71DFF0020FFF72EFF28
:1029040000BF08BDEC0000206CD2000008B50F4BDE
:102914001B79002B04D10E494FF4857007F0F2FBAC
:102924000120FFF711FF4FF48070FFF724FF04200C
:10293400FFF714FF00BF0120FFF74CFF0346002BF5
:10294400F9D1024B00225A7100BF08BDEC000020EF
:102954006CD2000008B54FF48070FFF720FF0346E7
:10296400002B14D04FF48070FFF705FF0120FFF710
:10297400EBFE114B5B7983F00103DBB2002B06D035
:102984000D4B01225A710C4B1B68002098474FF4E1
:102994008270FFF704FF0346002B0AD04FF48270C5
:1029A400FFF7E9FE0220FFF7CFFE034B1B6801206F
:1029B400984700BF08BD00BFEC00002000B583B0FD
:1029C4000346ADF80630BDF80630184600F026F888
:1029D40003461B68012B0CBF01230023DBB21846FE
:1029E40003B05DF804FB00B585B00346ADF80630CE
:1029F400BDF80630184600F011F803461A460023C5
:102A04001360BDF80630184600F008F803461B684A
:102A14000393039B00BF05B05DF804FB82B003463B
:102A2400ADF80630BDF8063003F1804303F5C0432A
:102A3400184602B07047000082B00190034BD3F8EF
:102A44000423019B1340184602B070470060004005
:102A540082B00190054A019B03F5A27352F823301A
:102A64001B0A03F03F03184602B0704700600040A1
:102A740082B00190064A019B03F5A27352F82330F9
:102A84001B0C03F00303DBB2184602B0704700BF0F
:102A94000060004000B583B00190019B1B6818469C
:102AA40000F0AAF80346002B04D10B494FF4F6704A
:102AB40007F028FB019B1B681F2B02D84FF0A04393
:102AC40006E0019B1B6803F01F02019B1A60034B85
:102AD400184603B05DF804FBD0D200000003005098
:102AE40000B585B001900B468DF8033001AB184654
:102AF400FFF7D0FF0390019A039B02F5E07253F8AD
:102B04002230019A23F44031039B02F5E07243F82A
:102B14002210019A039B02F5E07253F822109DF8EB
:102B240003301B04019A1943039B02F5E07243F836
:102B3400221000BF05B05DF804FB00B585B001901C
:102B440001AB1846FFF7A6FF0390019A039B02F519
:102B5400E07253F822301B0C03F00303DBB2184677
:102B640005B05DF804FB000088B003900291019267
:102B7400164A05AB92E8030083E80300039B07931E
:102B840019E0079B9B0020336B4453F80C3CD3F8AB
:102B94002025019B1A60079B9B0020336B4453F84C
:102BA4000C3C019A1268C3F82025019B043301935D
:102BB400079B01330793039A029B1344079A9A4293
:102BC400DFD300BF00BF08B0704700BFF4D20000DD
:102BD40000B585B0019001AB1846FFF75BFF039089
:102BE400019B012202FA03F31A46039BC3F8202532
:102BF40000BF05B05DF804FB84B00190019B5B0944
:102C0400029300230393029B002B03D0029B012B0E
:102C140004D007E04FF0FF33039303E04FF6FF7354
:102C2400039300BF019B03F01F030193039A019BCD
:102C340022FA03F303F00103002B14BF0123002342
:102C4400DBB2184604B0704784B001900091009B39
:102C54000393019BDB080293019B03F00703019399
:102C64000122019B02FA03F30399029A0A4412789F
:102C74001340184604B0704782B00190044A019B87
:102C84001344303393F90030184602B0704700BF44
:102C9400F800002082B00190034A019B52F82330CF
:102CA400184602B0704700BFF800002084B00190BD
:102CB400074A019B1344603393F900308DF80F30B9
:102CC4009DF80F3023F0C003184604B0704700BFCE
:102CD400F800002084B00190074A019B134460333C
:102CE40093F900308DF80F309DF80F309B09DBB25B
:102CF400184604B0704700BFF800002000B585B046
:102D04000190019A02210020FFF72EFF0023039374
:102D14000BE0039B9B00019A13441B68002B01D01A
:102D2400012306E0039B01330393039B012BF0D99A
:102D34000023184605B05DF804FB000000B587B019
:102D44000190002305935BE0344A059B13446033F0
:102D540093F90030B3F1FF3F4ED00598FFF7A6FF7B
:102D6400049001990498FFF76FFF0346002B44D0A9
:102D74000598FFF7AFFF03468DF80F300498FFF76F
:102D8400DCFE03468DF80E309DF80E30022B01D187
:102D9400032300E002238DF80D309DF80D30194611
:102DA4000498FFF79DFE0498FFF712FF0498FFF7BD
:102DB40063FF03461846FFF76DFF0290029B002B4A
:102DC4001BD09DF80F30032B0FD09DF80E30022B33
:102DD40003D19DF80F30012B07D09DF80E30032B43
:102DE4000BD19DF80F30022B07D19DF80F20029BC9
:102DF40011460498984700E000BF059B01330593F2
:102E0400059B032BA0D90198FFF778FF0346002BFD
:102E140097D100BF00BF07B05DF804FBF8000020A5
:102E240000B58BB00023099301AB00221A605A60ED
:102E34004FF48073ADF81E300123069300230893EA
:102E440021E0BDF81E301846FFF7B8FD0346002BFD
:102E54000ED00698FFF7F0FD0346002B08D0BDF80E
:102E64001E301846FFF7BFFD099A069B13430993CA
:102E7400069B5B000693BDF81E300433ADF81E308C
:102E8400089B01330893089B072BDAD94FF4BE70D3
:102E9400FFF794FD0346002B0DD04FF4BE70FFF7EF
:102EA400A2FD099B43F00043099301AB1A4602219A
:102EB4000020FFF759FE099BDBB2002B29D0012328
:102EC40006930023089321E0069A099B1340002BE4
:102ED40016D00898FFF7BCFD05900898FFF7C8FDC9
:102EE40003468DF813300898FFF7D4FE0390039B34
:102EF400002B05D09DF81320039B11460598984795
:102F0400069B5B000693089B01330893089B072BE1
:102F1400DAD9099B002B03DA01AB1846FFF70EFF41
:102F240000BF0BB05DF804FB82B003468DF8073098
:102F34009DF90730002B0CDB9DF8073003F01F02CE
:102F440005499DF907305B09012000FA02F241F8B6
:102F5400232000BF02B0704700E100E082B00346C6
:102F640000918DF807309DF90730002B0ADB009B98
:102F7400DAB20C499DF907305201D2B20B4483F8FE
:102F840000230BE0009BDAB207499DF8073003F0F9
:102F94000F03043B5201D2B20B441A7600BF02B0B5
:102FA400704700BF00E100E000ED00E082B0019056
:102FB400019B1B0B5BB2184602B0704700B583B08F
:102FC40003460A468DF8073013468DF806309DF8FF
:102FD4000630072B03D908496B2007F093F89DF8B6
:102FE40006209DF9073011461846FFF7B7FF00BFCA
:102FF40003B05DF804FB00BF3CD3000000B583B010
:1030040003468DF807309DF907301846FFF78CFF0B
:1030140000BF03B05DF804FB82B003468DF80730AF
:103024000F4A9DF90730002B00DA1F335B115BB2A6
:1030340052F823209DF90730594203F01F0301F091
:103044001F0158BF4B425BB222FA03F303F00103A2
:10305400002B14BF01230023DBB2184602B07047D3
:1030640000E100E084B00346ADF80630BDF8063058
:1030740003F1804300221A60BDF8063003F1804357
:103084001B680393039B00BF04B0704782B00346E0
:10309400ADF80630BDF8063003F180431B68002B01
:1030A40014BF01230023DBB2184602B0704700B5F9
:1030B40085B00346ADF80630BDF806301846FFF774
:1030C400E5FF03468DF80F309DF80F30002B04D038
:1030D400BDF806301846FFF7C5FF9DF80F301846B7
:1030E40005B05DF804FB82B001904FF08042019B73
:1030F400C2F8043300BF02B070474FF08043D3F8E6
:1031040004331846704782B001904FF08042019B0F
:10311400C2F8083300BF02B0704782B003468DF88E
:1031240007309DF80730002B01D0012300E0002375
:103134004FF08042C2F8783500BF02B0704782B0C9
:1031440003468DF807309DF80730002B01D001238A
:1031540000E000234FF08042C2F8803500BF02B087
:10316400704700B583B006238DF807304FF08040D8
:10317400FFF71CFF03461846FFF74EFF034683F094
:103184000103DBB2002B13D04FF08040FFF70EFF9A
:1031940003461A469DF8073019461046FFF70EFFFE
:1031A4004FF08040FFF702FF03461846FFF726FF63
:1031B40000BF03B05DF804FB00B583B00190019B30
:1031C400002B03D11149702006F09CFF104B1B7893
:1031D400002B01D0852315E0019B1B78C3F340032A
:1031E400DBB21846FFF7ABFF019B1B78C3F3000368
:1031F400DBB21846FFF791FFFFF7B3FF044B012240
:103204001A700023184603B05DF804FB84D3000051
:103214006401002000B583B00190019B002B03D111
:103224000849ED2006F06EFF00F01EF8019B1B68B4
:10323400002B03D0019B1B68034A136000BF03B03B
:103244005DF804FB84D300007001002008B54FF43E
:103254006070FFF748FF00BF08BD08B54FF4607009
:10326400FFF751FF00BF08BD024B00221A6000BFE8
:10327400704700BF7001002000B583B0FFF73DFF29
:103284000190019B03F00403002B12D04FF48470CF
:10329400FFF70DFF0346002B0BD0464B1B68002B9A
:1032A40004D145494FF48B7006F02CFF414B1B6849
:1032B4009847019B03F02003002B13D04FF48A702E
:1032C400FFF7F5FE0346002B0CD03C4B1B68002B8C
:1032D40004D1394940F21F1006F014FF374B1B6824
:1032E40000209847019B03F04003002B13D04FF4B8
:1032F4008C70FFF7DCFE0346002B0CD02F4B1B68B1
:10330400002B04D12C494FF4937006F0FBFE2B4B99
:103314001B6801209847019B03F08003002B13D006
:103324004FF48E70FFF7C3FE0346002B0CD0244BE2
:103334001B68002B04D1204940F22F1006F0E2FE56
:103344001F4B1B6800209847019B03F48073002BDC
:1033540013D04FF49070FFF7AAFE0346002B0CD055
:10336400174B1B68002B04D113494FF49B7006F0D4
:10337400C9FE134B1B6801209847019B03F400739B
:10338400002B13D04FF49270FFF791FE0346002BED
:103394000CD00B4B1B68002B04D1074940F23D10A5
:1033A40006F0B0FE064B1B680220984700BF03B02E
:1033B4005DF804FB6801002084D300006C01002048
:1033C4007001002008B5FFF757FFFFF7C3FA00BFED
:1033D40008BD000008B5064B1B68002B03D1054946
:1033E400452006F08FFE024B1B68984708BD00BFBE
:1033F40074010020C4D3000008B5064B1B68002BE1
:1034040003D10549482006F07DFE024B1B6898470E
:1034140008BD00BF7C010020C4D3000008B5064BE2
:103424001B68002B03D105494B2006F06BFE024BB1
:103434001B68984708BD00BF84010020C4D3000066
:1034440008B5064B1B68002B03D105494E2006F036
:1034540059FE024B1B68984708BD00BF8C01002031
:10346400C4D3000008B5064B1B68002B03D10549E3
:10347400512006F047FE024B1B68984708BD00BF69
:1034840094010020C4D3000082B001900091019BFC
:10349400009AC3F8082300BF02B0704782B00190BD
:1034A4000091019BD3F80423009B1340184602B0FB
:1034B400704782B001900B46ADF80230BDF802307F
:1034C400019A13441B68184602B0704784B00190F7
:1034D4000B46ADF80230BDF80230019A13440022C5
:1034E4001A60BDF80230019A13441B680393039BCE
:1034F40000BF04B0704782B001900091019B009A14
:10350400C3F8482300BF02B07047000000B589B07B
:103514000390029101924FF4803306934FF4A07309
:10352400ADF816300023079330E006990398FFF7AF
:10353400B5FF0346002B1ED0BDF81630194603987C
:10354400FFF7B7FF0346002B15D006990398FFF742
:10355400D2FF06990398FFF797FFBDF81630194676
:103564000398FFF7B3FF2D4A029B52F82330079AC2
:10357400D2B210469847069B5B000693BDF81630FE
:103584000433ADF81630079B01330793079A019B68
:103594009A42CAD34FF48073ADF8163001210398D0
:1035A400FFF77CFF0346002B14D0BDF816301946F4
:1035B4000398FFF77EFF0346002B0BD0BDF81630AF
:1035C40019460398FFF782FF144A029B52F82330EE
:1035D400042098474FF48273ADF816300221039803
:1035E400FFF75CFF0346002B14D0BDF816301946D4
:1035F4000398FFF75EFF0346002B0BD0BDF816308F
:1036040019460398FFF762FF044A029B52F82330DD
:103614000520984700BF09B05DF804FB9C01002019
:1036240008B5032200210248FFF770FF00BF08BD60
:1036340000B0004008B5042201210248FFF766FFEC
:1036440000BF08BD0040024082B003468DF8073039
:103654009DF90730002B0CDB9DF8073003F01F02A7
:1036640005499DF907305B09012000FA02F241F88F
:10367400232000BF02B0704700E100E082B003469F
:1036840000918DF807309DF90730002B0ADB009B71
:10369400DAB20C499DF907305201D2B20B4483F8D7
:1036A40000230BE0009BDAB207499DF8073003F0D2
:1036B4000F03043B5201D2B20B441A7600BF02B08E
:1036C400704700BF00E100E000ED00E082B001902F
:1036D400019B1B0B5BB2184602B0704700B583B068
:1036E40003460A468DF8073013468DF806309DF8D8
:1036F4000630072B03D908496B2006F003FD9DF81B
:1037040006209DF9073011461846FFF7B7FF00BFA2
:1037140003B05DF804FB00BF04D4000000B583B01F
:1037240003468DF807309DF907301846FFF78CFFE4
:1037340000BF03B05DF804FB82B001900B468DF826
:1037440003309DF80330019A134401221A6000BF2C
:1037540002B0704784B001900B46ADF80230BDF85A
:103764000230019A134400221A60BDF80230019A13
:1037740013441B680393039B00BF04B0704782B0DB
:1037840001900B46ADF80230BDF80230019A1344A3
:103794001B68002B14BF01230023DBB2184602B0C0
:1037A400704782B001900091019BD3F80022009BE6
:1037B4001A43019BC3F8002200BF02B0704782B0D5
:1037C40001900091019BD3F80022009BDB431A4037
:1037D400019BC3F8002200BF02B0704782B0019081
:1037E4000091019B009AC3F8042300BF02B0704704
:1037F40082B001900091019B009AC3F8082300BF96
:1038040002B0704782B001900091019BD3F8042369
:10381400009B1340002B14BF01230023DBB2184686
:1038240002B0704782B001900B468DF80330019BC3
:10383400D3F8043523F003029DF8033003F00303A7
:103844001A43019BC3F8042500BF02B0704782B03D
:1038540001900B468DF80330019BD3F8083523F013
:1038640003029DF8033003F003031A43019BC3F8DA
:10387400082500BF02B0704782B001900B468DF856
:103884000330019BD3F8103523F00F029DF8033069
:1038940003F00F031A43019BC3F8102500BF02B0C5
:1038A400704784B003900B4601928DF80B309DF85D
:1038B4000B20039B02F5A872019943F8221000BF64
:1038C40004B0704782B00190019B9B0003F5A07384
:1038D4009BB2184602B0704782B001904FF4803218
:1038E400019B02FA03F3184602B0704710B588B082
:1038F400039002910192039B1B791A4613465B00C5
:1039040013449B006F4A13440693029B002B03D17C
:103914006D494A2006F0F6FB019B002B03D16A494E
:103924004B2006F0EFFB069B1B7A002B03D00823E9
:103934000593059BC2E0039B1B68644A93420FD125
:10394400029B9B78012B63D0029B9B78002B5FD05A
:10395400029B9B78022B5BD0029B9B78032B57D056
:10396400039B1B685A4A93420FD1029B9B78012BFD
:103974004ED0029B9B78002B4AD0029B9B78022B53
:1039840046D0029B9B78032B42D0039B1B68514A71
:1039940093420FD1029B9B78012B39D0029B9B78D9
:1039A400002B35D0029B9B78022B31D0029B9B7855
:1039B400032B2DD0039B1B68474A93420FD1029BD4
:1039C4009B78012B24D0029B9B78002B20D0029B58
:1039D4009B78022B1CD0029B9B78032B18D0039B53
:1039E4001B683E4A93420FD1029B9B78012B0FD058
:1039F400029B9B78002B0BD0029B9B78022B07D059
:103A0400029B9B78032B03D02F495F2006F07AFB9F
:103A1400069B019A1A60029B5A68069B5A6000230F
:103A24008DF81F3010E0039B1C689DF81F3018466A
:103A3400FFF748FF034619462046FFF78BFE9DF823
:103A44001F3001338DF81F30039B5B799DF81F20D5
:103A54009A42E8D3039B1B681846FFF737FE0346D8
:103A64001A46029BDB7819461046FFF737FE039B84
:103A74001B681846FFF72AFE03461846FFF74EFE5A
:103A8400039B1A68029B5B7819461046FFF7CAFE2F
:103A9400039B1A68029B9B7819461046FFF7D7FED2
:103AA400039B1A68029B1B7819461046FFF7E4FE35
:103AB400069B01221A7200230593059B184608B041
:103AC40010BD00BFA401002028D4000000800040E5
:103AD4000090004000A0004000A0014000B0014060
:103AE40000B583B00190019B1B791946114A0B461E
:103AF4005B000B449B00134408331B78012B03D059
:103B04000D498F2006F0FEFA019B1B680021184620
:103B1400FFF712FE019B1B791946064A0B465B0010
:103B24000B449B001344083302221A7000BF03B0F5
:103B34005DF804FBA401002028D4000010B586B071
:103B4400039001921A460B468DF80B3013468DF8FC
:103B54000A309DF80B301846FFF7BEFE05909DF81D
:103B64000A30002B12D0039B1C689DF80B301846BA
:103B7400FFF7A8FE034619462046FFF7EBFD039B1B
:103B84001B6805991846FFF729FE05E0039B1B688F
:103B940005991846FFF72CFE039B1B689DF80B1034
:103BA400019A1846FFF77DFE00BF06B010BD00B5B0
:103BB40085B0039001921A460B468DF80B301346DC
:103BC400ADF80830039B18689DF80B304FF48072F1
:103BD4009A409DF80B30012101FA03F3134319466F
:103BE400FFF7EDFD039B1B68BDF80820114618463E
:103BF400FFF7D7FD9DF818309DF80B10019A039834
:103C0400FFF79CFF00BF05B05DF804FB00B587B06B
:103C14000390029113468DF8073000238DF8173076
:103C240030E09DF817301846FFF74CFE0346ADF818
:103C340014309DF817301846FFF74EFE0490BDF877
:103C4400143019460398FFF79AFD0346002B14D04D
:103C540004990398FFF7D6FD0346002B0DD0BDF859
:103C6400143019460398FFF775FD029B1B68029AEE
:103C74005168BDF81420104698479DF81730013359
:103C84008DF817309DF817209DF807309A42C8D355
:103C940000BF00BF07B05DF804FB000008B50422B4
:103CA40002490348FFF7B2FF00BF08BDA40100208A
:103CB4000080004008B5042202490348FFF7A6FF2C
:103CC40000BF08BDB00100200090004008B50422E8
:103CD40002490348FFF79AFF00BF08BDBC0100205A
:103CE40000A0004008B5062202490348FFF78EFFF2
:103CF40000BF08BDC801002000A0014008B506228D
:103D040002490348FFF782FF00BF08BDD401002029
:103D140000B0014082B003468DF807309DF90730AA
:103D2400002B0CDB9DF8073003F01F0205499DF9B9
:103D340007305B09012000FA02F241F8232000BF9A
:103D440002B0704700E100E082B003468DF807300E
:103D54009DF90730002B13DB9DF8073003F01F0299
:103D640009499DF907305B09012000FA02F220336A
:103D740041F82320BFF34F8F00BFBFF36F8F00BF05
:103D840000BF02B0704700BF00E100E082B003460C
:103D94008DF807309DF90730002B0DDB9DF80730B7
:103DA40003F01F0206499DF907305B09012000FA60
:103DB40002F2403341F8232000BF02B0704700BF35
:103DC40000E100E082B003468DF807309DF907302A
:103DD400002B0DDB9DF8073003F01F0206499DF907
:103DE40007305B09012000FA02F2603341F8232016
:103DF40000BF02B0704700BF00E100E082B003469C
:103E040000918DF807309DF90730002B0ADB009BE9
:103E1400DAB20C499DF907305201D2B20B4483F84F
:103E240000230BE0009BDAB207499DF8073003F04A
:103E34000F03043B5201D2B20B441A7600BF02B006
:103E4400704700BF00E100E000ED00E082B00190A7
:103E5400019B03F06043B3F1005F0CBF0123002317
:103E6400DBB2184602B0704782B00190019B9A0001
:103E7400024B1B681344184602B0704778D5000003
:103E840000B583B003460A468DF8073013468DF813
:103E940006309DF80630072B03D908496B2006F03D
:103EA40031F99DF806209DF9073011461846FFF7B1
:103EB400A5FF00BF03B05DF804FB00BF68D4000099
:103EC40000B583B003468DF807309DF907301846D6
:103ED400FFF720FF00BF03B05DF804FB82B0034688
:103EE4008DF807300F4A9DF90730002B00DA1F3395
:103EF4005B115BB252F823209DF90730594203F05D
:103F04001F0301F01F0158BF4B425BB222FA03F3B7
:103F140003F00103002B14BF01230023DBB2184676
:103F240002B0704700E100E000B583B003468DF8AD
:103F340007309DF907301846FFF706FF00BF03B0AE
:103F44005DF804FB00B583B003468DF807309DF996
:103F540007301846FFF71AFF00BF03B05DF804FBF3
:103F640000B583B003468DF807309DF90730184635
:103F7400FFF728FF00BF03B05DF804FB82B0019097
:103F8400019B03F1804303F51C33184602B07047CC
:103F940082B00190019B03F1804303F51C33184662
:103FA40002B0704700B583B003468DF807309DF822
:103FB40007301846FFF7E2FF034601221A60BFF3F9
:103FC4006F8F00BFBFF34F8F00BF00BF03B05DF81A
:103FD40004FB00B583B00346ADF80630BDF80630E7
:103FE4001846FFF7CBFF034600221A60BFF36F8F1A
:103FF40000BFBFF34F8F00BF00BF03B05DF804FBE9
:1040040000B583B00346ADF80630BDF80630184657
:10401400FFF7BEFF03461B68002B14BF01230023D8
:10402400DBB2184603B05DF804FB00B585B0034667
:10403400ADF80630BDF806301846FFF7E1FF034639
:104044008DF80F309DF80F30002B04D0BDF80630EA
:104054001846FFF7BEFF9DF80F30184605B05DF80F
:1040640004FB000082B00190034A019BC2F80433B0
:1040740000BF02B0704700BF00700240024BD3F88B
:1040840004331846704700BF0070024082B00190AC
:10409400034A019BC2F8083300BF02B0704700BF57
:1040A40000700240054B0122C3F80025BFF36F8F57
:1040B40000BFBFF34F8F00BF00BF704700700240C6
:1040C400054B0022C3F80025BFF36F8F00BFBFF379
:1040D4004F8F00BF00BF704700700240024BD3F8FF
:1040E40000341846704700BF0070024082B001904F
:1040F400064A019BC2F80034BFF36F8F00BFBFF3C1
:104104004F8F00BF00BF02B0704700BF0070024075
:1041140000B583B0FFF7E2FF01900198FFF7E6FFD7
:10412400BFF36F8F00BFBFF34F8F00BF019B1846D3
:1041340003B05DF804FB000000B585B003468DF8BC
:1041440007309DF8073003F00F038DF80F309DF909
:104154000730002B10DA9DF80F30072B04D91149D2
:104164004FF4816005F0CEFF0F4A9DF80F3003F540
:10417400847352F8233010E09DF80F30072B04D9D4
:10418400084940F20D4005F0BDFF074A9DF80F3085
:1041940003F588739B0013445B68184605B05DF80B
:1041A40004FB00BF8CD400000070024000B583B053
:1041B40003468DF807309DF8073003F00803002B01
:1041C40001D000230AE09DF807301846FFF7B4FF3A
:1041D4000346012B0CBF01230023DBB2184603B0B6
:1041E4005DF804FB024BD3F86C341846704700BFEB
:1041F4000070024082B00190064A019BC2F86C3400
:10420400BFF36F8F00BFBFF34F8F00BF00BF02B07B
:10421400704700BF0070024000B583B0FFF7E2FFB3
:1042240001900198FFF7E6FF019B184603B05DF883
:1042340004FB0000024BD3F88034DBB2184670470D
:1042440000700240024BD3F88434DBB21846704746
:104254000070024082B0094BD3F88834ADF80630C0
:10426400064BD3F88C349BB21B029AB2BDF80630CD
:1042740013439BB2184602B0704700BF007002405F
:1042840082B0094BD3F89034ADF80630064BD3F81E
:1042940094349BB21B029AB2BDF8063013439BB20E
:1042A400184602B0704700BF0070024082B0094B4C
:1042B400D3F89834ADF80630064BD3F89C349BB24F
:1042C4001B029AB2BDF8063013439BB2184602B0E3
:1042D400704700BF0070024000B585B003468DF8FA
:1042E40007309DF90730002B05DA9DF8073003F0FD
:1042F4000F03082B0EDD9DF90730002B05DB9DF81D
:10430400073003F00F03082B04DD1C4940F25F4023
:1043140005F0F8FE9DF90730002B04DA17494FF435
:104324008C6005F0EFFE9DF8073003F00803002BC6
:104334000CD0134BD3F8C0340393039B03F48033A2
:10434400002B01D000230393039B13E09DF8073057
:1043540003F00803002B04D0084940F26B4005F039
:10436400D1FE074A9DF8073003F00F0303F5947359
:1043740052F82330184605B05DF804FB8CD40000D5
:104384000070024000B585B003468DF807309DF9F2
:104394000730002B05DA9DF8073003F00F03082BD4
:1043A4000EDD9DF90730002B05DB9DF8073003F087
:1043B4000F03082B04DD184940F2714005F0A2FEFA
:1043C4009DF90730002B04DA134940F2724005F0DE
:1043D40099FE9DF8073003F00803002B04D10E4921
:1043E40040F2734005F08EFE0C4BD3F8C0340393B7
:1043F400039B002B03D14FF0FF33039306E0039B91
:1044040003F48033002B01D000230393039B18464D
:1044140005B05DF804FB00BF8CD4000000700240BE
:1044240000B583B003468DF807309DF90730002BA3
:1044340005DB9DF8073003F00803002B04D00C497A
:1044440040F2834005F05EFE0A4A9DF8073003F00F
:104454000F0303F59473002142F82310BFF36F8F09
:1044640000BFBFF34F8F00BF00BF03B05DF804FB74
:104474008CD4000000700240054B0122C3F80425CF
:10448400BFF36F8F00BFBFF34F8F00BF00BF7047F4
:1044940000700240054B0022C3F80425BFF36F8F60
:1044A40000BFBFF34F8F00BF00BF704700700240D2
:1044B40082B003468DF80730034A9DF80730C2F8EE
:1044C400083500BF02B070470070024000B583B0E9
:1044D40003460A468DF8073013468DF806309DF9D9
:1044E4000730002B05DA9DF8073003F00F03082B83
:1044F4000EDD9DF90730002B05DB9DF8073003F036
:104504000F03082B04DD154940F2A34005F0FAFD22
:104514009DF8073003F00803002B04D00F4940F244
:10452400A44005F0EFFD0E4A9DF80730C2F80C35A3
:10453400BFF34F8F00BF9DF807209DF806301B0284
:104544001A43074BC3F80C25BFF36F8F00BFBFF3AB
:104554004F8F00BF00BF03B05DF804FB8CD4000094
:104564000070024000B585B003468DF807309DF910
:104574000730002B05DA9DF8073003F00F03082BF2
:104584000EDD9DF90730002B05DB9DF8073003F0A5
:104594000F03082B04DD184940F2B74005F0B2FDC3
:1045A4009DF8073003F00F038DF80F309DF90730A5
:1045B400002B0EDA114BD3F810259DF80F3022FA98
:1045C40003F303F00103002B14BF01230023DBB228
:1045D4000DE00A4BD3F814259DF80F3022FA03F3AB
:1045E40003F00103002B14BF01230023DBB21846A0
:1045F40005B05DF804FB00BF8CD4000000700240DD
:1046040000B585B003468DF807309DF90730002BBF
:1046140005DA9DF8073003F00F03082B0EDD9DF932
:104624000730002B05DB9DF8073003F00F03082B40
:1046340004DD194940F2C64005F064FD9DF80730D9
:1046440003F00F038DF80F309DF90730002B0CDABF
:10465400124BD3F810259DF80F30012101FA03F312
:104664000E491343C1F810350BE00C4BD3F8142555
:104674009DF80F30012101FA03F308491343C1F8EF
:104684001435BFF36F8F00BFBFF34F8F00BF00BF60
:1046940005B05DF804FB00BF8CD40000007002403C
:1046A40000B585B003468DF807309DF90730002B1F
:1046B40005DA9DF8073003F00F03082B0EDD9DF992
:1046C4000730002B05DB9DF8073003F00F03082BA0
:1046D40004DD1A4940F2D74005F014FD9DF8073077
:1046E40003F00F038DF80F309DF90730002B0DDA1E
:1046F400134BD3F810259DF80F30012101FA03F371
:10470400DB430F491340C1F810350CE00C4BD3F8D0
:1047140014259DF80F30012101FA03F3DB43084906
:104724001340C1F81435BFF36F8F00BFBFF34F8F31
:1047340000BF00BF05B05DF804FB00BF8CD40000CF
:104744000070024000B583B003468DF807309DF831
:10475400073003F00803002B04D00B494FF49E608C
:1047640005F0D0FC9DF80730084A43F48073C2F882
:104774001835BFF36F8F00BFBFF34F8F00BF00BF6B
:1047840003B05DF804FB00BF8CD40000007002404D
:1047940000B583B003468DF807309DF8073003F069
:1047A4000803002B04D00A494FF49F6005F0AAFCCB
:1047B400084A9DF80730C2F81835BFF36F8F00BF61
:1047C400BFF34F8F00BF00BF03B05DF804FB00BF11
:1047D4008CD400000070024082B003468DF807308C
:1047E400034A9DF80730C2F81C3500BF02B0704779
:1047F40000700240024BD3F81C35DBB218467047F8
:1048040000700240024BD3F820351846704700BFB1
:1048140000700240024B0122C3F82C2500BF7047F0
:1048240000700240024B0022C3F82C2500BF7047E1
:1048340000700240044BD3F82C35002B14BF012325
:104844000023DBB2184670470070024082B0034672
:104854008DF80730034A9DF80730C2F8303500BFA1
:1048640002B070470070024000B587B00346029161
:1048740001928DF80F309DF90F30002B36DA9DF838
:104884000F3003F00803002B08D0354A029BC2F80E
:10489400A036334A019BC2F8A4365DE09DF80F3080
:1048A40003F00F038DF816309DF81630072B04D94A
:1048B4002C4940F2345005F025FC29499DF8162076
:1048C40013469B0013449B000B4403F5C063029AF8
:1048D4001A6023499DF8162013469B0013449B003D
:1048E4000B4403F20463019A1A6035E09DF80F301B
:1048F40003F00803002B08D0194A029BC2F8A03722
:10490400174A019BC2F8A43726E09DF80F3003F044
:104914000F038DF817309DF81730072B04D9114970
:1049240040F2435005F0EEFB0D499DF81720134665
:104934009B0013449B000B4403F5E063029A1A6046
:1049440007499DF8172013469B0013449B000B4412
:1049540003F20473019A1A6000BF07B05DF804FB08
:10496400007002408CD4000082B0164B1B68019387
:10497400154B1B680093019B082B1FD1009B052B33
:104984001AD801A252F823F0A5490000A949000051
:10499400AD490000B1490000B5490000B949000023
:1049A40001230CE001230AE0012308E0012306E0CF
:1049B400012304E0012302E0012300E00023184660
:1049C40002B07047300100103401001082B0164B61
:1049D4001B680193154B1B680093019B082B1FD187
:1049E400009B052B1AD801A252F823F0094A0000B3
:1049F4000D4A0000114A0000154A0000194A00003F
:104A04001D4A000001230CE001230AE0012308E011
:104A1400012306E0012304E0012302E0012300E076
:104A24000023184602B07047300100103401001012
:104A340082B0164B1B680193154B1B680093019BB6
:104A4400082B1FD1009B052B1AD801A252F823F082
:104A54006D4A0000714A0000754A0000794A00005E
:104A64007D4A0000814A000000230CE001230AE093
:104A7400012308E0012306E0012304E0012302E00E
:104A8400012300E00023184602B0704730010010F3
:104A94003401001082B0164B1B680193154B1B6840
:104AA4000093019B082B1FD1009B052B1AD801A250
:104AB40052F823F0D14A0000D54A0000D94A000038
:104AC400DD4A0000E14A0000E54A000001230CE051
:104AD40001230AE0012308E0012306E0012304E0A6
:104AE400012302E0012300E00023184602B07047CE
:104AF400300100103401001000231846704708B537
:104B0400FFF732FF0346184608BD08B5FFF75EFFFE
:104B14000346184608BD08B5FFF78AFF0346184642
:104B240008BD08B5FFF7B6FF0346184608BD08B52B
:104B3400FFF7E2FF0346184608BD000000B583B046
:104B440003468DF807309DF90730002B05DA9DF8F0
:104B5400073003F00F03082B0EDD9DF90730002BFF
:104B640005DB9DF8073003F00F03082B04DD0B4928
:104B74004FF4B97005F0C6FA9DF90730002B01DA3D
:104B8400074A00E0074A9DF8073003F00F035B0073
:104B940013441B88184603B05DF804FBB0D400002E
:104BA40050D5000064D5000000B583B003468DF8ED
:104BB40007309DF90730002B05DA9DF8073003F024
:104BC4000F03082B0EDD9DF90730002B05DB9DF844
:104BD400073003F00F03082B04DD0C4940F29B104F
:104BE40005F090FA9DF90730002B01DA084A00E03D
:104BF400084A9DF8073003F00F0313441B781A4644
:104C040001239340184603B05DF804FBB0D40000C0
:104C14007CD5000088D5000000B587B003900291D0
:104C240001920093029B0493019A009B9A4204D23E
:104C340024494FF4E97005F065FA049B1B68002BC6
:104C44000CD0049B1B681846FFF700F90346002BA1
:104C540004D11C4940F2D31005F054FA049B5B685C
:104C64000593059A009B9A4207D2039B00225A603F
:104C7400039B049A12681A6013E0039B009A5A601B
:104C8400039B049A12681A60059A009BD31A059331
:104C9400049B059A5A60049B1A68009B1A44049B5F
:104CA4001A60019A009B9A4204D1059B002B01D003
:104CB400012300E0002303F00103DBB2184607B030
:104CC4005DF804FBB0D4000000B587B003900291F6
:104CD4000192029B0493049B1B681846FFF7B6F8E5
:104CE4000346002B04D1164940F2F91005F00AFAE4
:104CF400049B5B680593059A019B9A4201D9019B29
:104D04000593039B049A12681A60039B059A5A60E0
:104D1400049B5A68059BD21A049B5A60049B1A6828
:104D2400059B1A44049B1A60049B5B68002B14BF08
:104D340001230023DBB2184607B05DF804FB00BF73
:104D4400B0D4000000B587B0039002910192029B99
:104D54000493049B1B681846FFF778F80346002B5E
:104D640004D1184940F21A2005F0CCF9049B5B6881
:104D74000593059A019B9A4201D9019B0593059BD2
:104D8400002B02D0049B1B6800E00023039A1360ED
:104D9400039B059A5A60049B5A68059BD21A049B8C
:104DA4005A60049B1A68059B1A44049B1A60059B6D
:104DB400002B14BF01230023DBB2184607B05DF8B3
:104DC40004FB00BFB0D4000000B589B00390029189
:104DD4000192029B0693069B1B681846FFF736F860
:104DE400034683F00103DBB2002B04D11E494FF4C8
:104DF4000E7005F087F9069B5B68079301F0C6FD0A
:104E04000590079A019B9A4201D9019B0793079B3E
:104E1400402B04D9144940F2422005F073F9069B53
:104E24001B68079A1946059807F0C2FF039B059A69
:104E34001A60039B079A5A60069B5A68079BD21A0A
:104E4400069B5A60069B1A68079B1A44069B1A60C5
:104E5400069B5B68002B14BF01230023DBB21846BA
:104E640009B05DF804FB00BFB0D4000000B589B000
:104E7400039002910192029B0693069B1B681846BD
:104E8400FEF7E4FF034683F00103DBB2002B04D1F9
:104E9400214940F25B2005F035F9069B5B680793D6
:104EA40001F074FD0590079A019B9A4201D9019B78
:104EB4000793079B402B04D9174940F2652005F05E
:104EC40021F9079B002B0AD0069B1B68079A1946F9
:104ED400059807F06DFF039B059A1A6002E0039B97
:104EE40000221A60039B079A5A60069B5A68079B24
:104EF400D21A069B5A60069B1A68079B1A44069BA3
:104F04001A60079B002B14BF01230023DBB2184651
:104F140009B05DF804FB00BFB0D4000000B583B055
:104F240003468DF807309DF90730002B05DA9DF80C
:104F3400073003F00F03082B0EDD9DF90730002B1B
:104F440005DB9DF8073003F00F03082B04DD05494A
:104F540040F2852005F0D6F89DF80730184603B0D6
:104F64005DF804FBB0D4000000B583B003468DF8AF
:104F740007309DF90730002B05DA9DF8073003F060
:104F84000F03082B0EDD9DF90730002B05DB9DF880
:104F9400073003F00F03082B04DD0C4940F2922084
:104FA40005F0B0F89DF90730002B01DA042200E087
:104FB40028229DF8073003F00F03DBB29B00DBB21D
:104FC4001344DBB2184603B05DF804FBB0D4000010
:104FD40000B583B003468DF807309DF90730002BE8
:104FE40005DA9DF8073003F00F03082B0EDD9DF959
:104FF4000730002B05DB9DF8073003F00F03082B67
:1050040004DD0B4940F2A22005F07CF89DF907303D
:10501400002B01DA074A00E0074A9DF8073003F045
:105024000F031B011344184603B05DF804FB00BFD3
:10503400B0D4000088020020F801002000B583B03D
:1050440003468DF807309DF90730002B05DA9DF8EB
:10505400073003F00F03082B0EDD9DF90730002BFA
:1050640005DB9DF8073003F00F03082B04DD0B4923
:1050740040F2B52005F046F89DF90730002B01DA1F
:10508400002200E010229DF8073003F00F03DBB28A
:105094001344DBB2184603B05DF804FBB0D400003F
:1050A40082B003468DF807309DF807300F2B04D9E2
:1050B4009DF80730103BDBB204E09DF8073063F045
:1050C4007F03DBB2184602B07047000008B5FFF753
:1050D40028FD0346002B02D0034B82221A60034BA7
:1050E40001221A7000BF08BD1C7C0240F40100209C
:1050F40008B5FFF716FD0346002B02D0034B002230
:105104001A60034B00221A7000BF08BD1C7C0240C9
:10511400F401002000B583B003468DF807309DF8F4
:1051240007301846FFF720FF03461846FEF73AFFFC
:1051340000BF03B05DF804FB00B583B003468DF8EF
:1051440007309DF807301846FFF780FB00BF03B017
:105154005DF804FB10B586B003468DF807300020D7
:1051640004F0FAFE9DF807301846FFF731FF05906A
:105174009DF90730002B39DB614B1B68DC439DF83C
:1051840007301846FFF75AFF03461A460123934097
:105194002340002B05D09DF80730184601F0A8FCE9
:1051A40020E0059B00221A609DF807301846FFF79F
:1051B40045FF03461A4601239340DA43504B1B68CC
:1051C40013404F4A13609DF807301846FFF736FF27
:1051D40003461A4601239340DA434A4B1B681340A3
:1051E400484A1360059B03229A7383E09DF80730B5
:1051F40003F00803002B37D19DF80730802B1CD017
:105204009DF8073003F00F0303F2DA333E4A5B00E4
:1052140013603E4B1B688DF812309DF8123043F03A
:1052240002038DF81230394B1A689DF81230374951
:1052340013430B60354B1B6816E0334B40F2B472DA
:105244001A60324B1B688DF813309DF8133043F00D
:1052540004038DF813302D4B1A689DF813302B4935
:1052640013430B60294B1B68264B1B68DA43244B02
:105274001B6842EA03049DF807301846FFF7DEFE78
:1052840003461A46012393402340002B32D09DF855
:1052940007301846FFF7D2FE03461A46012393400F
:1052A400DA43174B1B681340154A13609DF8073007
:1052B4001846FFF7C3FE03461A46012303FA02F217
:1052C400104B1B6813430F4A1360059B00221A609E
:1052D400059B03229A7306238DF80C309DF8073042
:1052E4008DF80E3003238DF80F30094B1B6803AA89
:1052F40010469847002004F043FE00BF06B010BDDE
:10530400F0010020EC010020007802400478024003
:10531400E401002000B583B003468DF807309DF802
:1053240007301846FFF716FF00BF03B05DF804FB13
:1053340000B587B0214B1B681B0C1B04204A126864
:10534400134305932EE0059B0293029B93FAA3F368
:105354000193019B0393039B002B01D1202303E0C2
:10536400039BB3FA83F3DBB28DF813309DF813304B
:105374001846FFF795FE034603F00803002B08D1F7
:105384009DF813301846FFF78BFE03461846FFF7C7
:10539400E1FE9DF81330012202FA03F3DB43059A80
:1053A40013400593059B002BCDD1044B40F2FF1213
:1053B4001A6000BF07B05DF804FB00BFEC010020D9
:1053C400F001002008B52720FEF7BCFD00BF08BD92
:1053D40000B583B0094B00221A70094B00221A70E1
:1053E4000023019301238DF80430064B1B6801AAA6
:1053F4001046984700BF03B05DF804FBE8010020A5
:10540400E9010020E401002000BF704700B583B02B
:1054140080238DF80730FFF76BFE9DF807301846A0
:10542400FFF7D6FD0090009B9B7B032B0ED19DF8CC
:1054340007301846FFF702FE03461A46012393403D
:10544400DB4319460C48FDF7BFF811E0009B1B68CD
:10545400002B0DD19DF807301846FFF7EFFD0346EA
:105464001A4601239340DB4319460348FDF7ACF881
:1054740000BF03B05DF804FBF001002000B585B067
:1054840003468DF807309DF90730002B04DB2649CD
:1054940040F2B63004F036FE9DF8073003F00803FE
:1054A400002B04D0204940F2B73004F02BFE9DF8C5
:1054B400073003F00F03002B04DC1B494FF46E701C
:1054C40004F020FEFFF714FE9DF807301846FFF79E
:1054D4007FFD0390039B9B7B032B0ED19DF807302C
:1054E4001846FFF7ABFD03461A4601239340DB43FE
:1054F40019460E48FDF768F811E0039B1B68002B62
:105504000DD19DF807301846FFF798FD03461A465B
:1055140001239340DB4319460448FDF755F800BFC7
:1055240005B05DF804FB00BFB0D40000F00100201A
:1055340000B585B003468DF807309DF90730002B80
:1055440004DB28494FF4757004F0DCFD9DF8073046
:1055540003F00803002B04D1224940F2D53004F0B3
:10556400D1FDFFF7C5FD9DF807301846FFF730FD64
:105574000390039B9B7B032B0ED19DF807301846A9
:10558400FFF75CFD03461A4601239340DB431946AB
:105594001548FDF719F820E0039B1B68002B1CD16C
:1055A4009DF807301846FFF749FD03461A460123C4
:1055B4009340DB4319460C48FDF706F806238DF8A3
:1055C40008309DF807308DF80A3000238DF80B3031
:1055D400064B1B6802AA1046984700BF05B05DF849
:1055E40004FB00BFB0D40000F0010020E40100205F
:1055F40000B585B000238DF80F30FFF779FD9DF8D5
:105604000F301846FFF7E4FC0290029B9B7B032BB0
:105614000ED19DF80F301846FFF710FD03461A46C9
:1056240001239340DB4319461548FCF7CDFF23E0E3
:10563400029B1B68002B1DD19DF80F301846FFF705
:10564400FDFC03461A4601239340DB4319460C48EC
:10565400FCF7BAFF06238DF804309DF80F308DF85F
:10566400063000238DF80730064B1B6801AA10464C
:10567400984701E001F024FA00BF05B05DF804FB8F
:10568400F0010020E401002000B585B003468DF848
:1056940007309DF90730002B04DA2E4940F21440FC
:1056A40004F030FD9DF8073003F00803002B04D00C
:1056B400284940F2154004F025FD9DF8073003F019
:1056C4000F03002B04DC234940F2164004F01AFDBA
:1056D400FFF70EFD9DF807301846FFF779FC03909D
:1056E400039B9B7B032B0ED19DF807301846FFF7D5
:1056F400A5FC03461A4601239340DB43194616488A
:10570400FCF762FF20E0039B1B68002B1CD19DF873
:1057140007301846FFF792FC03461A4601239340CC
:10572400DB4319460C48FCF74FFF06238DF808307D
:105734009DF807308DF80A3000238DF80B30074BA5
:105744001B6802AA1046984700F096FA00BF05B0FD
:105754005DF804FBB0D40000F0010020E401002057
:1057640000B585B003468DF807309DF8073003F087
:105774000803002B04D11B4940F23A4004F0C2FC58
:10578400FFF7B6FC9DF807301846FFF721FC03909D
:10579400039B9B7B032B20D0039B1B68002B1CD1FA
:1057A4009DF807301846FFF749FC03461A460123C3
:1057B4009340DB4319460C48FCF706FF06238DF89B
:1057C40008309DF807308DF80A3000238DF80B302F
:1057D400064B1B6802AA1046984700BF05B05DF847
:1057E40004FB00BFB0D40000F0010020E40100205D
:1057F40008B5FFF70BFE00BF08BD08B58120FFF711
:105804003DFE00BF08BD08B58220FFF737FE00BF8C
:1058140008BD08B58320FFF731FE00BF08BD08B5F9
:105824008420FFF72BFE00BF08BD08B58520FFF7D5
:1058340025FE00BF08BD08B58620FFF71FFE00BF88
:1058440008BD08B58720FFF719FE00BF08BD08B5DD
:105854008820FFF76DFE00BF08BD08B5FFF7C8FE3E
:1058640000BF08BD08B50120FFF70EFF00BF08BD4B
:1058740008B50220FFF708FF00BF08BD08B50320E4
:10588400FFF702FF00BF08BD08B50420FFF7FCFEC8
:1058940000BF08BD08B50520FFF7F6FE00BF08BD30
:1058A40008B50620FFF7F0FE00BF08BD08B50720C5
:1058B400FFF7EAFE00BF08BD08B50820FFF750FF58
:1058C40000BF08BD00B583B000238DF80030FEF79B
:1058D40099FF03469BB2ADF802308820FFF7AEFB78
:1058E40003461A460123934001930820FEF74AFD1C
:1058F4000346B3F1FF3F09D00820FFF79FFB03469F
:105904001A4601239340019A13430193074B1A68E3
:10591400019B1343054A1360054B1B686A461046F6
:10592400984700BF03B05DF804FB00BFEC01002002
:10593400E401002000B585B003460A468DF807301F
:1059440013468DF806309DF8063001229A402B4B01
:105954001B681343294A13609DF90730002B30DA82
:105964009DF807301846FFF7E9F803461846FEF796
:105974005CFB0346002B0BD09DF80730802B05D031
:105984009DF807301846FFF779FD01E0FFF73EFD6B
:105994009DF8063001229A40194B1B681340002BD6
:1059A40027D106238DF80C309DF807308DF80E3082
:1059B40000238DF80F30134B1B6803AA1046984739
:1059C40017E09DF8063001229A400D4B1B681340E6
:1059D400002B0ED106238DF808309DF807308DF882
:1059E4000A3001238DF80B30064B1B6802AA1046BF
:1059F400984700BF05B05DF804FB00BFEC01002030
:105A0400F0010020E401002010B5074B1C78064B80
:105A14001B781846FFF712FB034619462046FFF78A
:105A240089FF00BF10BD00BFE901002010B582B09E
:105A3400FEF700FC03468DF80730284B1B68DB4358
:105A44009AB2274B1B6842EA0304264B1B7818467C
:105A5400FFF7F4FA03461A46012393402340002B30
:105A640004D0204B1B781846FFF774FB9DF90730D0
:105A7400002B01DB002200E080221A4B1A70002068
:105A8400FFF7DCFA03461A46012303FA02F48020E6
:105A9400FFF7D4FA03461A46012393402343DB431A
:105AA40019460F48FCF790FD8020FFF7C7FA03461C
:105AB4001A46012303FA02F2084B1B681343074AF0
:105AC40013600023009305238DF80030064B1B68F8
:105AD4006A461046984700BF02B010BDEC01002092
